:020000040800F2
:1000000070040020450100085F0C0008A10A0008E8
:100010005D0C00088D010008250D0008000000009F
:10002000000000000000000000000000870C000835
:100030008F01000800000000850C0008890C0008F2
:100040005F0100085F0100085F0100085F01000810
:100050005F0100085F0100085F0100085F01000800
:100060005F0100085F0100085F0100085F010008F0
:100070005F0100085F0100085F0100085F010008E0
:100080005F0100085F0100085F0100085F010008D0
:100090005F0100085F0100085F0100085F010008C0
:1000A0005F0100085F0100085F0100085F010008B0
:1000B0005F0100085F0100085F0100085F010008A0
:1000C0005F0100085F0100085F0100085F01000890
:1000D0005F0100085F0100085F0100085F01000880
:1000E0005F0100085F0100085F0100085F01000870
:1000F0005F0100085F0100085F0100085F01000860
:100100005F0100085F0100085F0100085F0100084F
:100110005F0100085F0100085F0100085F0100083F
:100120005F0100085F0100085F0100085F0100082F
:10013000DFF80CD000F018F800480047710D0008F7
:10014000700400200648804706480047FEE7FEE7A7
:10015000FEE7FEE7FEE7FEE7FEE7FEE7FEE7FEE777
:10016000D90C000831010008064C074D06E0E06894
:1001700040F0010394E8070098471034AC42F6D3EE
:10018000FFF7DAFF200F0008400F0008FEE7704776
:10019000B0B5044600F0E6F805468E48611C0078CC
:1001A00018BF044400F0DEF8401BA042FAD3B0BDF3
:1001B0002DE9FC4F81465D4806234FF001084FF0C2
:1001C0000F0E4FF0000A8145594808BF05234844E7
:1001D0004FEAB022052A4FF0000238BF4FEAB023A1
:1001E00000930023102A08BFBDE8FC8F0C6808FAB2
:1001F00002F73C4200F097804D68032D16D9112D6F
:1002000026D0122D28D04D48854213D04C48854227
:1002100010D04C4885420DD04B4885420AD04B48FF
:10022000854207D04A48854204D022E0DFE805F045
:1002300002181B1F8C6844B1012C4FF0080A14BF30
:10024000C9F81470C9F8107013E04FF0040A10E0F8
:10025000CC6804F1040A0CE0CC6804F10C0A08E054
:10026000D1F80CA005E0CC6804F1080A01E04FF0D9
:10027000000A082A1C46484628BF203C28BF0430F4
:1002800006680EFA04F50AFA04F426EA05052C437A
:100290000460C879C00646D55D48264E22F00305A5
:1002A00004460068B346354440F0010020602068F1
:1002B00000F00100019003F00C00019E0EFA00F422
:1002C000244EB446AE5926EA0404009E06FA00F015
:1002D000204345F80C004D68DBF8000015F4803F22
:1002E0000CBF20EA070440EA0704A803CBF800404B
:1002F000DBF8040054BF20EA070440EA0704E802E0
:10030000CBF80440DBF8080054BF20EA070440EAB9
:100310000704A8020848CBF808400446006854BF08
:10032000B84338432060043301325BE7001C0140CE
:1003300000F8FEBF000401400C0401400000111051
:1003400000001210000021100000221000003110E7
:100350000000321008FCFFFF002A08BF09040161F9
:10036000704700001B488068704700BF194801783B
:10037000826811448160704780B50748016841F088
:1003800010010160032000F069F8002000F006F879
:1003900000F022F8002080BD0020024070B50D4E14
:1003A00004464FF47A713078B1FBF0F0884909685F
:1003B000B1FBF0F000F060FB01250F2C08D838B934
:1003C0004FF0FF3021460022002500F025F8746030
:1003D000284670BD0000002082B00D48042201684C
:1003E00041F001010160016801F0010101910199F1
:1003F000416841F080514160406800F080500090B9
:1004000000980448016862F31A61016002B0704705
:10041000181002400400014010B5164B1B68C3F3CE
:10042000022E0EF1040CAEF103048EF00703BCF1B2
:10043000070F4FF0010C38BF0024042B28BF042302
:100440000CFA03F3013B19400CFA04F3013BA14001
:100450001A401143BDE8104000F002BC05494FF6B8
:10046000FF030A681A4060F30A2203481043086039
:10047000704700BF0CED00E00000FA052DE9F041E7
:10048000514F04464FF480500D46395801F0070192
:10049000A94209D2395821F0070129433950385867
:1004A00000F00700A84251D1206810F0020F11D0CF
:1004B000410742BF796841F4E0617960010742BFBA
:1004C000796841F4605179607968A26821F0F0019F
:1004D00011437960C00732D14FF48050395801F090
:1004E0000701A94209D9395821F007012943395098
:1004F000385800F00700A84228D1206810F0040FF7
:1005000005D07968E26821F4E06111437960000761
:1005100006D57868216920F4605040EAC10078600F
:1005200000F058F87968294A0024C1F30311515C9E
:10053000C840274908600020FFF730FF07E06068E7
:10054000012807D1396811F4003F0BD10124E0B232
:10055000BDE8F0813968022802D18901F6D501E0B1
:100560008907F3D5796821F0030108437860FFF724
:10057000F9FE0646606841F2883801280CD002284E
:1005800015D1786800F00C000828A5D0FFF7EAFE26
:10059000801B4045F5D914E0786800F00C00042871
:1005A0009AD0FFF7DFFE801B4045F5D909E0786857
:1005B00010F00C0F3FF490AFFFF7D4FE801B4045C6
:1005C000F5D90324C3E700BF001002400E0F000856
:1005D0000C00002010B50D4C0D48226802F00C03F1
:1005E000082B18BF10BDC2F383430AA112F4803F49
:1005F000CB5C02D10C48584310BD216809A2584376
:10060000C1F34041515CB0FBF1F010BD0410024059
:1006100000127A0002030405060708090A0B0C0DF4
:100620000E0F10100102000000093D002DE9FE43ED
:1006300081460078CA4ECB4FC0074FD0386800F0D3
:100640000C00042819D0386800F00C00082803D1E9
:10065000386810F4803F10D1D9F80400A8B1B0F583
:10066000803F06D03168B0F5A02F23D141F480201F
:100670003060306840F4803022E0306810F4003F91
:100680002CD0D9F8040048BB1EE1306820F480303B
:100690003060306820F480203060FFF763FE05464C
:1006A000306810F4003F19D0FFF75CFE401B64284F
:1006B000F6D9F7E021F480303060306820F48020F3
:1006C0003060FFF74FFE0546306810F4003F05D15B
:1006D000FFF748FE401B6428F6D9E3E099F80000D4
:1006E000800732D5386810F00C0F08D0386800F059
:1006F0000C0008280CD1386810F4803F08D130680D
:1007000010F0020F19D0D9F81000012815D0DBE045
:10071000D9F810109448002900F088800121016068
:10072000FFF720FE0546306810F0020F05D1FFF7F5
:1007300019FE401B0228F6D9B4E03068D9F814102D
:1007400020F0F80040EAC100306099F8000000078E
:1007500031D5D9F8180080B183480121C0F8801440
:10076000FFF700FE0546386A10F0020F16D1FFF7BA
:10077000F9FD401B0228F6D994E07B480021C0F81F
:100780008014FFF7EFFD0546386A10F0020F12D013
:10079000FFF7E8FD401B0228F6D983E073484FF4C9
:1007A000FA510068B0FBF1F0029000BF0298411EC0
:1007B00000280291F9D199F8000040077BD5B8696B
:1007C00010F0805F0BD1B8694FF0010840F0805005
:1007D000B861B86900F080500190019801E04FF0D5
:1007E0000008634C305910F4807F10D1305940F428
:1007F00080703051FFF7B6FD0546305910F4807F08
:1008000005D1FFF7AFFD401B6428F6D94AE0D9F8BF
:100810000C00D8B1012805D0F96905282DD141F087
:100820000400F861F86940F001002CE0002101604B
:10083000FFF798FD0546306810F0020F3FF485AFD2
:10084000FFF790FD401B0228F5D92BE0F86920F056
:100850000100F861F86920F00400F861FFF782FDFB
:10086000054641F28834F86910F0020F1CD0FFF7FA
:1008700079FD401BA042F6D914E021F00100F86197
:10088000F86920F00400F861FFF76CFD054641F2BD
:100890008834F86910F0020F06D1FFF763FD401BA2
:1008A000A042F6D9032056E0B8F1000F1EBFB86988
:1008B00020F08050B861D9F81C40002C4AD038682C
:1008C00000F00C00082801D1012044E02649002056
:1008D00088460866FFF746FD0546022C0BD14446C4
:1008E000306810F0007F11D0FFF73CFD411B032062
:1008F0000229F5D92FE0306810F0007F2AD0FFF7E9
:1009000031FD411B03200329F5D324E0D9F8200051
:10091000B0F5803F06D13968D9F8082021F40031BC
:10092000114339603968D9F82420104321F4741137
:100930000843386001202066FFF714FD0446306844
:1009400010F0007F06D1FFF70DFD011B03200229E7
:10095000F5D900E00020C0B203B0BDE8F08300BFCD
:100960000010024004100240000042420C0000202F
:100970000060FEFF70B50546C0B300264FF0000CC6
:10098000AE6295F8510020B9284600F033F8D5F84A
:1009900028C0022185F8511029680A6822F0400217
:1009A0000A60D5E90123D5E903041A4310436A69B3
:1009B00020431043AA6902F400731843EB691843FB
:1009C0002B6A184340EA0C000860042000EA124039
:1009D0006A6A10434860E86A0861C86920F40060E8
:1009E000C86101206E6585F8510000E0012630469F
:1009F00070BD000070B586B00026784CCDE9046665
:100A0000CDE90266006804F52051884225D11448DA
:100A100002AD016841F480510160016801F4805128
:100A200001910199016841F00401016029460068C3
:100A300000F004000190019802200390A020029091
:100A4000032005902046FFF7B3FB4020039629467C
:100A5000029020460496FFF7ABFB06B070BD00BFC6
:100A6000181002400C4904280A6822F0040308BF49
:100A700042F004030B607047411E0020B0EB116F81
:100A80001CBF01207047044AF023516003490B70DA
:100A9000072190601160704710E000E023ED00E056
:100AA000FEE70000B0B5664C402100222046FFF76B
:100AB00053FC4FF4AA7000F03FF920464FF48071C8
:100AC0000022FFF749FC0E4C3820A0470D4D0420B2
:100AD000A8470820A0470420A8470120A0470420D9
:100AE000A8470620A0470420A8470C20A0470420C0
:100AF000A8470120A04704202946BDE8B040084788
:100B0000F90B000891010008B0B5F44C10F0010F8A
:100B100005464FF400610CBF0022012204F500607D
:100B2000FFF71AFCA8074FF40041204654BF0022EB
:100B30000122FFF711FC68074FF40051204654BF13
:100B400000220122FFF708FC28074FF4006120462D
:100B500054BF00220122FFF7FFFBE8064FF40071AB
:100B6000204654BF00220122FFF7F6FBA8064FF0F3
:100B7000800104F5006054BF00220122FFF7ECFB66
:100B800068064FF4004104F5806054BF0022012242
:100B9000FFF7E2FB28064FF4005104F5806054BFD4
:100BA00000220122FFF7D8FB0D4D4FF4AA70A84791
:100BB00004F58064102101222046FFF7CDFB4FF49D
:100BC000AA70A847204610210022FFF7C5FB4FF46A
:100BD000AA702946BDE8B040084700BF00080140A0
:100BE000390D0008A0F14002002908BF80F0800202
:100BF000D0B200F001B8000010B5044610484FF420
:100C000080710022FFF7A8FB2046FFF77DFF4FF41D
:100C1000AA70BDE8104000F08FB800BF10B50446C0
:100C200007484FF480710122FFF796FB2046FFF73B
:100C30006BFF4FF4AA70BDE8104000F07DB800BF14
:100C4000000C014010B51446FFF7CCFF02E0FFF79F
:100C5000E5FF013420780028F9D110BDFEE7704788
:100C600010B5064A064C00F00F03002802444FEA74
:100C70000110B8BF1A19107010BD00BF00E400E0E9
:100C800014ED00E070477047FFF770BBB0B590B04F
:100C900000244FF4803001210225CDE90B44CDE939
:100CA00009440790069108940A91CDE90D504FF43C
:100CB000E0100F9006A8FFF7B9FC0F200221CDE944
:100CC00001054FF480600394CDE9040401A8FFF707
:100CD000D5FB10B0B0BD00000E480F4A016841F0CE
:100CE00001010160416811400C4A416001681140F6
:100CF0000160016821F480210160416821F4FE0156
:100D000041604FF41F01816005484FF000610160B0
:100D1000704700BF001002400000FFF8FFFFF6FE22
:100D200008ED00E0FEE7000010B504460420FFF7E0
:100D300099FE0E48047010BD80B50B490B4A002384
:100D4000D1F800C0127802FB00FE48684A68904261
:100D5000FCD0034490421046A3EB020398BF6344C7
:100D6000734528BF80BDF1E714E000E010000020CB
:100D70002DE9F04F85B0FFF7FFFAFFF787FF482016
:100D8000FFF7D2FF00255448544E554F00220495DA
:100D9000016806F5806441F010010160016801F00E
:100DA000100100910099016841F020010160016883
:100DB00001F0200100910099016841F004010160F7
:100DC000016801F0040100910099016841F00801F7
:100DD00001604AF6F851006800F0080000900098A1
:100DE0002046B84706F500684FF4D451002240462B
:100DF000B84730464FF47F410022B84706F54066B9
:100E0000042100223046B84701AFDFF8D8A04FF0E8
:100E10000209204602953946CDF804900395D04743
:100E20004FF0010B4AF6F8503946CDF808B0019062
:100E30002046CDE90359D0474FF4A04002953946EA
:100E400001902046CDF80C90D0474FF4A070029549
:100E5000394601904046CDF80C90D0474FF4D4501D
:100E6000CDF808B0394601904046CDE90359D04746
:100E70001A4C4FF47F40CDF808B039460190CDE9C7
:100E800003592046D0470420CDF808B039460190D8
:100E90003046CDE90359D04713484FF4827104F529
:100EA00020524FF400731027C0E900210A21C0E945
:100EB0000255C0E90455C0E90637C0E90855C0E944
:100EC0000A51FFF757FDFFF7EDFD08A405200021AB
:100ED0002246FFF7B7FEF9E718100240000801406C
:100EE00059030008B101000814000020313233001A
:100EF00002E008C8121F08C1002AFAD170477047E3
:100F0000002001E001C1121F002AFBD17047000040
:100F100000000000000001020304060708090000A9
:100F2000400F00080000002010000000F00E000834
:100F3000500F00081000002060040000000F00089F
:100F400001000000100000000000000000A24A04A0
:0400000508000131BD
:00000001FF
