:020000040800F2
:10000000C004002045010008A5120008C110000826
:10001000A31200088D0100088117000800000000ED
:10002000000000000000000000000000371400087D
:100030008F01000800000000751300083914000843
:100040005F0100085F0100085F0100085F01000810
:100050005F0100085F0100085F0100085F01000800
:100060005F0100085F0100085F0100085F010008F0
:100070005F0100085F0100085F0100085F010008E0
:100080005F0100085F0100085F0100085F010008D0
:100090005F0100085F0100085F0100085F010008C0
:1000A0005F0100085F0100085F0100085F010008B0
:1000B0005F0100085F0100085F0100085F010008A0
:1000C0005F0100085F0100085F0100085F01000890
:1000D0005F0100085F0100085F0100085F01000880
:1000E0005F0100085F0100085F0100085F01000870
:1000F0005F0100085F0100085F0100085F01000860
:100100005F0100085F0100085F0100085F0100084F
:100110005F0100085F0100085F0100085F0100083F
:100120005F0100085F0100085F0100085F0100082F
:10013000DFF80CD000F018F800480047CD17000891
:10014000C00400200648804706480047FEE7FEE757
:10015000FEE7FEE7FEE7FEE7FEE7FEE7FEE7FEE777
:100160008914000831010008064C074D06E0E068DC
:1001700040F0010394E8070098471034AC42F6D3EE
:10018000FFF7DAFF9C1A0008BC1A0008FEE7704768
:10019000B0B5044600F0EAF805469048611C0078C6
:1001A00018BF044400F0E2F8401BA042FAD3B0BDEF
:1001B0002DE9FC4F81465D4806234FF001084FF0C2
:1001C0000F0E4FF0000A8145594808BF05234844E7
:1001D0004FEAB022052A4FF0000238BF4FEAB023A1
:1001E00000930023102A08BFBDE8FC8F0C6808FAB2
:1001F00002F73C4200F097804D68032D16D9112D6F
:1002000026D0122D28D04D48854213D04C48854227
:1002100010D04C4885420DD04B4885420AD04B48FF
:10022000854207D04A48854204D022E0DFE805F045
:1002300002181B1F8C6844B1012C4FF0080A14BF30
:10024000C9F81470C9F8107013E04FF0040A10E0F8
:10025000CC6804F1040A0CE0CC6804F10C0A08E054
:10026000D1F80CA005E0CC6804F1080A01E04FF0D9
:10027000000A082A1C46484628BF203C28BF0430F4
:1002800006680EFA04F50AFA04F426EA05052C437A
:100290000460C879C00646D55F48264E22F00305A3
:1002A00004460068B346354440F0010020602068F1
:1002B00000F00100019003F00C00019E0EFA00F422
:1002C000244EB446AE5926EA0404009E06FA00F015
:1002D000204345F80C004D68DBF8000015F4803F22
:1002E0000CBF20EA070440EA0704A803CBF800404B
:1002F000DBF8040054BF20EA070440EA0704E802E0
:10030000CBF80440DBF8080054BF20EA070440EAB9
:100310000704A8020848CBF808400446006854BF08
:10032000B84338432060043301325BE7001C0140CE
:1003300000F8FEBF000401400C0401400000111051
:1003400000001210000021100000221000003110E7
:100350000000321008FCFFFFC2685140C1607047C6
:10036000002A08BF09040161704700001B4880682B
:10037000704700BF19480178826811448160704756
:1003800080B50748016841F010010160032000F0CA
:1003900069F8002000F006F800F022F8002080BD87
:1003A0000020024070B50D4E04464FF47A7130784B
:1003B000B1FBF0F088490968B1FBF0F000F000FDF6
:1003C00001250F2C08D838B94FF0FF302146002204
:1003D000002500F025F87460284670BD000000205C
:1003E00082B00D480122016841F0010101600168FD
:1003F00001F0010101910199416841F08051416092
:10040000406800F08050009000980448016862F352
:100410001A61016002B070471810024004000140E8
:1004200010B5164B1B68C3F3022E0EF1040CAEF18F
:1004300003048EF00703BCF1070F4FF0010C38BF27
:100440000024042B28BF04230CFA03F3013B1940BA
:100450000CFA04F3013BA1401A401143BDE81040DF
:1004600000F076BF05494FF6FF030A681A4060F3B3
:100470000A22034810430860704700BF0CED00E0FB
:100480000000FA052DE9F041514F04464FF4805029
:100490000D46395801F00701A94209D2395821F017
:1004A000070129433950385800F00700A84251D1BC
:1004B000206810F0020F11D0410742BF796841F463
:1004C000E0617960010742BF796841F46051796069
:1004D0007968A26821F0F00111437960C00732D138
:1004E0004FF48050395801F00701A94209D9395811
:1004F00021F0070129433950385800F00700A8427D
:1005000028D1206810F0040F05D07968E26821F442
:10051000E06111437960000706D57868216920F40D
:10052000605040EAC100786000F058F87968294AC4
:100530000024C1F30311515CC84027490860002022
:10054000FFF730FF07E06068012807D1396811F430
:10055000003F0BD10124E0B2BDE8F08139680228E8
:1005600002D18901F6D501E08907F3D5796821F038
:10057000030108437860FFF7F9FE0646606841F220
:10058000883801280CD0022815D1786800F00C00BA
:100590000828A5D0FFF7EAFE801B4045F5D914E0F6
:1005A000786800F00C0004289AD0FFF7DFFE801B6B
:1005B0004045F5D909E0786810F00C0F3FF490AF92
:1005C000FFF7D4FE801B4045F5D90324C3E700BFE5
:1005D00000100240821A00080C00002010B50D4CDB
:1005E0000D48226802F00C03082B18BF10BDC2F39F
:1005F00083430AA112F4803FCB5C02D10C485843DC
:1006000010BD216809A25843C1F34041515CB0FBC1
:10061000F1F010BD0410024000127A00020304053C
:10062000060708090A0B0C0D0E0F1010010200003E
:1006300000093D002DE9FE4381460078CA4ECB4FAC
:10064000C0074FD0386800F00C00042819D0386873
:1006500000F00C00082803D1386810F4803F10D156
:10066000D9F80400A8B1B0F5803F06D03168B0F5E4
:10067000A02F23D141F480203060306840F48030D6
:1006800022E0306810F4003F2CD0D9F8040048BBB9
:100690001EE1306820F480303060306820F4802023
:1006A0003060FFF763FE0546306810F4003F19D054
:1006B000FFF75CFE401B6428F6D9F7E021F4803098
:1006C0003060306820F480203060FFF74FFE054630
:1006D000306810F4003F05D1FFF748FE401B642846
:1006E000F6D9E3E099F80000800732D5386810F0B9
:1006F0000C0F08D0386800F00C0008280CD13868BE
:1007000010F4803F08D1306810F0020F19D0D9F8EA
:100710001000012815D0DBE0D9F81010944800290A
:1007200000F0888001210160FFF720FE0546306857
:1007300010F0020F05D1FFF719FE401B0228F6D971
:10074000B4E03068D9F8141020F0F80040EAC10095
:10075000306099F80000000731D5D9F8180080B151
:1007600083480121C0F88014FFF700FE0546386A6F
:1007700010F0020F16D1FFF7F9FD401B0228F6D941
:1007800094E07B480021C0F88014FFF7EFFD054698
:10079000386A10F0020F12D0FFF7E8FD401B022864
:1007A000F6D983E073484FF4FA510068B0FBF1F0DA
:1007B000029000BF0298411E00280291F9D199F8D9
:1007C000000040077BD5B86910F0805F0BD1B86995
:1007D0004FF0010840F08050B861B86900F08050D7
:1007E0000190019801E04FF00008634C305910F47B
:1007F000807F10D1305940F480703051FFF7B6FD42
:100800000546305910F4807F05D1FFF7AFFD401B3E
:100810006428F6D94AE0D9F80C00D8B1012805D0EF
:10082000F96905282DD141F00400F861F86940F01C
:1008300001002CE000210160FFF798FD05463068BB
:1008400010F0020F3FF485AFFFF790FD401B022828
:10085000F5D92BE0F86920F00100F861F86920F083
:100860000400F861FFF782FD054641F28834F8691B
:1008700010F0020F1CD0FFF779FD401BA042F6D903
:1008800014E021F00100F861F86920F00400F8613B
:10089000FFF76CFD054641F28834F86910F0020F4D
:1008A00006D1FFF763FD401BA042F6D9032056E0B6
:1008B000B8F1000F1EBFB86920F08050B861D9F8B8
:1008C0001C40002C4AD0386800F00C00082801D1E8
:1008D000012044E02649002088460866FFF746FDCF
:1008E0000546022C0BD14446306810F0007F11D031
:1008F000FFF73CFD411B03200229F5D92FE03068AA
:1009000010F0007F2AD0FFF731FD411B032003299F
:10091000F5D324E0D9F82000B0F5803F06D139683E
:10092000D9F8082021F40031114339603968D9F829
:100930002420104321F474110843386001202066FC
:10094000FFF714FD0446306810F0007F06D1FFF772
:100950000DFD011B03200229F5D900E00020C0B2E3
:1009600003B0BDE8F08300BF001002400410024055
:10097000000042420C0000200060FEFF70B50546FA
:10098000C0B300264FF0000CAE6295F8510020B9BC
:10099000284600F033F8D5F828C0022185F8511018
:1009A00029680A6822F040020A60D5E90123D5E9E6
:1009B00003041A4310436A6920431043AA6902F4EE
:1009C00000731843EB6918432B6A184340EA0C0084
:1009D0000860042000EA12406A6A10434860E86A2E
:1009E0000861C86920F40060C86101206E6585F85F
:1009F000510000E00126304670BD000070B586B0A1
:100A00000026194CCDE90466CDE90266006804F5BC
:100A10002051884225D1154802AD016841F480512A
:100A20000160016801F4805101910199016841F070
:100A3000040101602946006800F00400019001985B
:100A400002200390A0200290032005902046FFF78B
:100A5000AFFB402003962946029020460496FFF7FC
:100A6000A7FB06B070BD00BF00080140181002408F
:100A70002DE9FE43044690F850001D4616460F46E9
:100A8000012801D102208AE04FF0010984F850903A
:100A9000FFF76CFC804694F8510001284BD10120EF
:100AA000002F77D0002E75D0032084F8510000204D
:100AB0006065E6862763A686A063A087C4E9100068
:100AC000E087A1682068B1F5004F02BF016841F4DA
:100AD00080410160016811F0400F02BF016841F0E0
:100AE00040010160E2686168B2F5006F25D111B183
:100AF000E18E012905D137F8021BC160E08E013873
:100B0000E0866E1C13E02068816811F0020F08D1A6
:100B10006EB1F5B3FFF72AFCA0EB0800A84206D39C
:100B200037E037F8021BC160E08E0138E086E08EC6
:100B30000028E8D124E002202CE011B1E18E012947
:100B400005D117F8011B0173E08E0138E0866E1C99
:100B500013E02068816811F0020F08D16EB1C5B1B1
:100B6000FFF704FCA0EB0800A84206D311E017F839
:100B7000011B0173E08E0138E086E08E0028E8D189
:100B80002046022101222B46CDF8008000F005FC12
:100B900048B10320002184F8501084F85190C0B26D
:100BA00003B0BDE8F08320462946424600F0E3FB4F
:100BB00018B1202060650120ECE7A06838B900205A
:100BC00002902068C1680291806802900298606D6E
:100BD000002818BF0120DDE72DE9FC47044690F806
:100BE00050001D4616468A46012801D10220C3E066
:100BF000012084F85000FFF7B9FB94F851108146AA
:100C0000012964D1BAF1000F4FF0010018BF002E86
:100C100000F0AC80002D00F0A98094F85100DDF8C0
:100C20002880012804BF052084F851000020606559
:100C3000E587A663A587C4F830A0A586C4E910009F
:100C4000E5862068016811F0400F02BF016841F09D
:100C500040010160E2686168B2F5006F45D111B1F1
:100C6000E18E012905D13AF8021BC160E08E0138FE
:100C7000E086012708F10105E08E10B9E08F002819
:100C80006AD067B1E08E58B12068816811F0020F18
:100C900006D03AF8021BC160E08E0138E0860027DA
:100CA000E08F58B12068816811F0010F06D0C0684C
:100CB000012726F8020BE08F0138E087002DDBD0FA
:100CC000FFF754FBA0EB09004045D5D34DE0606829
:100CD000B0F5827F07D10220042947D1A1680029FD
:100CE0003FF490AF42E0022040E011B1E18E0129D3
:100CF00005D11AF8011B0173E08E0138E086012747
:100D000008F10105E08E08B9E08F28B367B1E08EE5
:100D100058B12068816811F0020F06D01AF8011B43
:100D20000173E08E0138E0860027E08F58B120681B
:100D3000816811F0010F06D0C068012706F8010B89
:100D4000E08F0138E087002DDCD0FFF70FFBA0EB30
:100D500009004045D6D308E020460221012243463F
:100D6000CDF8009000F019FB50B10320002184F869
:100D70005010012184F85110C0B202B0BDE8F087D4
:100D8000204641464A4600F0F6FA18B12020606538
:100D90000120EBE7A16800200029E7D1019021683C
:100DA000CA680192896801910199DFE70C4904281A
:100DB0000A6822F0040308BF42F004030B60704786
:100DC000411E0020B0EB116F1CBF01207047044A88
:100DD000F023516003490B70072190601160704748
:100DE00010E000E023ED00E090F83C300222012BFF
:100DF0001AD080F83D200268536823F070035360D6
:100E0000D1F800C0536843EA0C035360936823F0A1
:100E1000800393604968936819439160002201211F
:100E200080F83C2080F83D10D0B2704710B50446E1
:100E3000A0B194F83D0028B9002084F83C00204679
:100E400000F00EF80220211D84F83D00206800F01B
:100E500041FB012084F83D00002010BD012010BDA1
:100E60000068B0F1804F18BF704781B00548016835
:100E700041F001010160006800F00100009000985D
:100E800001B070471C10024010B590F83C20044699
:100E90000220012A00F0858084F83D0001204FF6F1
:100EA000777384F83C00206882689A4382600A68FD
:100EB000BAB1102A1BD0202A1FD0302A23D0402AB2
:100EC00027D0502A31D0602A3BD0702A45D0B2F5C5
:100ED000005F51D0B2F5805F5DD1816821F00701DC
:100EE00058E0816821F0770141F0070152E0816804
:100EF00021F0770141F017014CE0816821F0770182
:100F000041F0270146E0816821F0770141F0370187
:100F100040E04B68CA68194600F0CEFB2068816843
:100F200021F0770141F0470134E04B68CA68194667
:100F300000F0C2FB2068816821F0770141F0570181
:100F400028E04B68CA68194600F0C7FB2068816832
:100F500021F0770141F067011CE0D1E90123C96864
:100F60001A4342EA0121826822F47F4211438160E0
:100F7000816841F077010DE0D1E90123C9681A4386
:100F800042EA0121826822F47F4211438160816834
:100F900041F4804181600020012184F83C0084F804
:100FA0003D10C0B210BD0000FEB50021CDE9041116
:100FB000CDE902110068B0F1804F12D10A480168F2
:100FC00041F0040101600121006800F0040001907B
:100FD00001980220039002910590854802A9FFF72D
:100FE000E7F806B080BD00BF1810024070B50D468E
:100FF00090F83C1004460220012944D084F83D00BA
:101000004FEAB2000126032884F83C6036D8DFE8B6
:1010100000F0020A12222068294600F091FA2068A6
:1010200050F8181F0EE02068294600F0B7FA206833
:1010300050F8181F16E02068294600F0E1FA2068F1
:1010400050F81C1F41F008010160016821F0040103
:10105000016029690FE02068294600F003FB206841
:1010600050F81C1F41F400610160016821F48061A7
:10107000016029690902026811430160002084F8B7
:101080003C0084F83D60C0B270BD10B50446A0B10C
:1010900094F83D0028B9002084F83C00204600F078
:1010A0000EF80220211D84F83D00206800F012FA9D
:1010B000012084F83D00002010BD012010BD7047C4
:1010C000FEE7012000F0A0B8B0B5142000F062FBEC
:1010D0009D4C4FF4807100222046FFF741F92046D5
:1010E00040210022FFF73CF90C4C3820A047544D1A
:1010F0000A20A8470C20A0470A20A8470F20A04795
:101100000A20A8470120A0470A20A8470220A0479C
:101110000A202946BDE8B040084700BF0912000870
:10112000B0B5334C10F0010F05464FF400610CBF11
:101130000022012204F50060FFF712F9A8074FF022
:10114000100104F5006054BF00220122FFF708F9E6
:1011500068074FF0200104F5006054BF002201220F
:10116000FFF7FEF828074FF40061204654BF002225
:101170000122FFF7F5F8E8064FF40071204654BF4E
:1011800000220122FFF7ECF8A8064FF0800104F5D9
:10119000006054BF00220122FFF7E2F868064FF416
:1011A000004104F5806054BF00220122FFF7D8F807
:1011B00028064FF4005104F5806054BF002201223C
:1011C000FFF7CEF81E4D0120A84704F580641021DA
:1011D00001222046FFF7C4F80520A8472046102129
:1011E0000022FFF7BDF805202946BDE8B0400847BA
:1011F00000080140A0F14002002908BF80F08002F1
:10120000D0B200F001B8000070B54F4D04464FF465
:10121000807100222846FFF7A3F8094E0120B0474D
:10122000284640210022FFF79BF80120B0472046C6
:10123000FFF776FF0A203146BDE87040084700BF3F
:1012400091010008B0B5404D04464FF48071012271
:101250002846FFF785F80120FEF79AFF284640212F
:101260000022FFF77DF80120FEF792FF2046FFF7EE
:1012700057FF1420BDE8B04000F08CBA70B50646A8
:101280000A2014460D46FEF783FF30462946FFF735
:10129000B1FF02E0FFF7D6FF013420780028F9D132
:1012A00070BDFEE770470000FEB5274C15460E46A0
:1012B0008DF80B004FF4806100222046FFF750F8B4
:1012C000224FFF200DF10B010DF10A0201230090C6
:1012D0003846FFF781FC384631462A46FF23FFF7A0
:1012E000C7FB20464FF480610122FFF739F89DF8D3
:1012F0000A0003B0F0BD00BFBCB5134C8DF806105A
:101300008DF807004FF4806100222046FFF728F88F
:101310000E4DFF200DF107010DF105020123009094
:101320002846FFF759FC0DF1060128460122FF234C
:10133000FFF79EFB20464FF480610122FFF710F873
:101340009DF8050002B0B0BD000C01406000002017
:1013500010B5064A064C00F00F03002802444FEA7D
:101360000110B8BF1A19107010BD00BF00E400E0F2
:1013700014ED00E07047BCB50B46009280210022BE
:101380000446002500F009F820B1606D032540F007
:1013900020006065E8B202B0B0BD2DE9F843DDF889
:1013A00020801D4616460F4681465C1CD9F8000079
:1013B00081683940C91BB1FA81F14909B14235D080
:1013C000002CF3D03DB1FEF7D1FFA0EB0800A842FE
:1013D000ECD3D9F80000416821F0E0014160D9F870
:1013E0000410B1F5827F0BD1D9F80810B1F5004F88
:1013F00002D0B1F5806F03D1016821F04001016096
:10140000D9F82810B1F5005F08D101684DF6FF72D8
:1014100011400160016841F400510160002089F829
:101420005000012089F85100032000E00020C0B2E4
:1014300001B0BDE8F0837047FEF79CBFB0B590B037
:1014400000244FF4803001210225CDE90B44CDE981
:1014500009440790069108940A91CDE90D504FF484
:10146000E0100F9006A8FFF7E5F80F200221CDE964
:1014700001054FF480600394CDE9040401A8FFF74F
:1014800001F810B0B0BD00000E480F4A016841F0ED
:1014900001010160416811400C4A4160016811403E
:1014A0000160016821F480210160416821F4FE019E
:1014B00041604FF41F01816005484FF000610160F9
:1014C000704700BF001002400000FFF8FFFFF6FE6B
:1014D00008ED00E00268B0F1804F0ED0154B984245
:1014E0000BD0154B984208D0144B984205D0704B46
:1014F000984202D06F4B984208D14B6822F45C7C32
:10150000CA6823F4407343EA0C031A434B6922F080
:1015100080021A4302608A68C2620A688262644A70
:10152000904202D0634A904201D1096901630121CE
:10153000416170470004004000080040000C00407A
:1015400070B5026A22F001020262026AD0F804E079
:10155000D0F818C08C680B6822F0020222432CF0ED
:10156000730444EA030C524B984202D0514B984208
:101570000CD1CE68D1E905452EF4407322F00C025F
:10158000234343EA050E26F004031A43C0F804E09F
:10159000C0F818C049684163026270BD70B5026A44
:1015A00022F010020262026AD0F804E0D0F818C0FB
:1015B0008C680B6822F0200242EA04122CF4E64404
:1015C00044EA032C3A4B984202D03A4B98420FD14E
:1015D000CE68D1E905452EF4406322F0C00243EA0B
:1015E000840343EA850E6FF04F0303EA06131A43A0
:1015F000C0F804E0C0F818C049688163026270BD99
:1016000070B5026A22F480720262026AD0F804E0C5
:10161000D0F81CC08C680B6822F4007242EA0422E5
:101620002CF0730444EA030C214B984202D0214B66
:1016300098420FD1CE68D1E905452EF4405322F4EB
:10164000406243EA041340F2FF4443EA051E3302BA
:10165000A3431A43C0F804E0C0F81CC04968C16342
:10166000026270BDB0B5026A22F480520262026A60
:10167000D0F804E0C5698B680C6822F4005242EA95
:10168000033C0B4B25F4E64242EA0422984202D086
:10169000084B984204D14B692EF4804545EA831EDD
:1016A000C0F804E0C26149680164C0F820C0B0BD60
:1016B00000340140002C0140D0F820C0036A23F020
:1016C00001030362836923F0F00343EA021282619B
:1016D0002CF00A02114301627047036A23F01003E1
:1016E0000362836923F4704343EA0232036A82612E
:1016F00023F0A00242EA011101627047B0B51A4C12
:101700004FF4006100222046FEF72AFE174D032009
:101710000321A847164930200522FFF7C5FD1549CA
:101720002A200522FFF7C0FD31201921A8472120DA
:101730000021A84722200021A84724200021A847F3
:101740000D4801782520A8470C4801782620A84795
:1017500020200E21A84720464FF400610122BDE859
:10176000B040FEF7FDBD00BF000C0140F9120008BB
:10177000971A0008921A000810000020110000209B
:10178000FEE7000010B504460420FFF70FFB0E48EB
:10179000047010BD80B50B490B4A0023D1F800C07E
:1017A000127802FB00FE48684A689042FCD003446D
:1017B00090421046A3EB020398BF6344734528BFD1
:1017C00080BDF1E714E000E0B80000202DE9F04F03
:1017D0008FB0FEF7D5FDFFF731FE4820FFF7D2FFAF
:1017E0009548964CDFF858A2002241F6B0690027D0
:1017F000016804F5006841F010010160016801F022
:10180000100101910199016841F020010160016816
:1018100001F0200101910199016841F0040101608A
:10182000016801F0040101910199016841F008018A
:10183000016041F6B061006800F008000190019875
:101840004046D04704F580664AF6F07100223046E3
:10185000D04720464FF4F8510022D04704F54065A8
:10186000042100222846D0474FF0010A0220DFF869
:10187000D4B1CDE9019A0DF10409039704904046D3
:101880004946D847022002974946019030460397BF
:10189000D8474AF6F070CDF808A0494601900220DA
:1018A000039704903046D8474FF4A040029749462A
:1018B00001903046CDF80CA0D8474FF4A0700297A5
:1018C000494601904046CDF80CA0D8474FF4F85057
:1018D000CDF808A0022649460190204603970496B9
:1018E000D8470420CDF808A0494601902846CDE904
:1018F0000376D84754484FF4827104F520524FF4D0
:1019000000731026C0E900210A21C0E90277C0E96E
:101910000477C0E90636C0E90877C0E90A71FFF725
:101920002DF84A4E4FF0804023210E97CDE90C77D9
:1019300040F2E73286E883003046C6E90327B76104
:10194000CDE90677CDE90477FFF770FA4FF48050C0
:101950000BA90B903046FFF797FA3046FFF795FB3F
:1019600008A93046CDE90877FFF73EFA602001A9C3
:101970000022019040F2F310CDE9020730460597AE
:10198000FFF734FB3046FFF70FFBFFF79DFB30A25C
:1019900000200021FFF772FC40F6B830FEF7F8FB9C
:1019A000FFF78FFBFFF78DFBFFF7A8FE2B4E2C4FA9
:1019B00020464FF48071B0476420B84720464FF46A
:1019C0008071B0476420B84720464FF48071B0471B
:1019D0006420B84728464FF48071B0476420B84768
:1019E00028464FF48071B0476420B84728464FF42A
:1019F0008071B0476420B84720464FF48071B047EB
:101A000028464FF48071B0476420B84720464FF411
:101A10008071B04728464FF48071B0476420B847C2
:101A200020464FF48071B04728464FF48071B0478C
:101A30006420B847BCE700BF18100240000801400E
:101A400061030008B10100086000002020000020B0
:101A500057454C434F4D45210000000059030008F5
:101A60009101000802E008C8121F08C1002AFAD13B
:101A700070477047002001E001C1121F002AFBD10E
:101A80007047000000000000000001020304060788
:101A9000080911A95682210098457110C01A000842
:101AA0000000002020000000641A0008E01A00086E
:101AB00020000020A0040000741A000800000000AC
:101AC00001000000100000000000000000A24A0415
:101AD0005A060000000000000000000000000000A6
:0400000508000131BD
:00000001FF
